:020000040800F2
:10000000000003209D020008A3020008A7020008C8
:10001000190300081D030008650300080000000024
:10002000000000000000000000000000AD03000818
:10003000B103000800000000B50300080D09000826
:10004000C9030008C9030008C9030008C903000860
:10005000C9030008C9030008C9030008C903000850
:10006000C9030008C9030008C9030008C903000840
:10007000C9030008C9030008C9030008C903000830
:10008000C9030008C9030008C9030008C903000820
:10009000C9030008C9030008C9030008C903000810
:1000A000C9030008C9030008C9030008C903000800
:1000B000C9030008C9030008C9030008C9030008F0
:1000C000C9030008C9030008C9030008C9030008E0
:1000D000C9030008C9030008C9030008C9030008D0
:1000E000C9030008C9030008C9030008C9030008C0
:1000F000C9030008C9030008C9030008C9030008B0
:1001000000000000C9030008C9030008C903000873
:10011000C9030008C9030008C9030008C90300088F
:10012000C9030008C9030008C9030008C90300087F
:10013000C90300080000000000000000C903000817
:10014000C9030008C9030008C9030008C90300085F
:10015000C9030008C9030008C9030008C90300084F
:10016000C9030008C9030008C9030008C90300083F
:10017000C9030008C9030008C90300080000000003
:10018000C9030008C903000800B583B000F04CFAA9
:10019000304B314A1360314A1360314B314A03E02E
:1001A00052F8041B43F8041B2F498B42F8D32A4B07
:1001B0001A682E4B9A4200D0FEE7284B1A682C4B47
:1001C0009A42F9D1234B2B4A13602B4A13602B4BD5
:1001D00002E0002243F8042B294A9342F9D3254B2D
:1001E0001B6813B9244B1B6803B1FEE700F028FA23
:1001F000694601A800F028F9224C234BE41AA41008
:10020000002504E0204B53F8253098470135AC42D7
:10021000F8DC1E4C1E4BE41AA410002504E01C4B15
:1002200053F8253098470135AC42F8DC0099019825
:1002300000F01CFB0546174C174BE41AA41004E011
:10024000013C154B53F824309847002CF8DC284625
:1002500000F0D6F8BABADECA00000020E40100209F
:100260000000002010530008E801002078563412E6
:1002700032547698E801002090020020E801002026
:1002800094020020F4030008F4030008F4030008BB
:10029000F4030008F4030008F403000808B5FFF7AE
:1002A00073FF00BEFEE71EF0040F0CBFEFF30880E3
:1002B000EFF309807146414A10472DE9F04182B0C1
:1002C00004468846124B5E6B9F6B9D6A1B6B13F056
:1002D000020F03D00E4BDB6A002B0CDB0D4800F045
:1002E000EFF8CDF800803B4632462946204600F024
:1002F00011F900BEFEE74BF6AB6100F085F900286E
:10030000ECD0034B4FF00042DA6202B0BDE8F0815E
:1003100000ED00E0D84F000800BEFEE71EF0040F1D
:100320000CBFEFF30880EFF309807146244A1047B1
:100330002DE9F04182B004468846084B5E6B9F6B06
:100340009D6A074800F0BCF8CDF800803B46324675
:100350002946204600F0DEF800BEFEE700ED00E092
:10036000E84F00081EF0040F0CBFEFF30880EFF316
:1003700009807146134A10472DE9F04182B00446C6
:100380008846084B5E6B9F6B9D6A074800F098F8A3
:10039000CDF800803B4632462946204600F0BAF8A8
:1003A00000BEFEE700ED00E0F44F000800BEFEE7EF
:1003B00000BEFEE700BEFEE770470000BB0200087B
:0A03C0003103000879030008FEE78E
:1003CC001053000800000020E80100201053000822
:1003DC000000001000000010E80100209402002032
:0803EC000000001000000010E9
:10040000FEE7000008B503460C4A12685AB10B4AD1
:100410001068033323F003030344094A934206D8C8
:10042000064A136008BD054A06491160EFE700F06F
:1004300071FA0C2303604FF0FF30F3E7EC0100206A
:1004400000FC02209402002001230360014B0B609A
:10045000704700BF040000202DE9F04385B004463A
:100460000F46435633BB042528462146ABBE0446FF
:10047000384605B0BDE8F08304AA1344002203F80F
:10048000102C4FF00408E94640464946ABBE804672
:10049000761B002EECD03546102E28BF10250023E9
:1004A000AB42E9D214F9011B04AA1A4402F8101C49
:1004B0000133F5E70E46ECE708B5FFF7CDFF08BDC1
:1004C0000FB400B583B004AB53F8042B0193802123
:1004D000074801F041FF002804DC03B05DF804EB9D
:1004E00004B0704701460248FFF7E6FFF5E700BF9A
:1004F000F401002010B5044601F060F801462046E2
:10050000FFF7DAFF01210248FFF7D6FF10BD00BF59
:10051000544F0008F8B504460D4617461E462748B6
:10052000FFF7CEFF21682648FFF7CAFF616825481C
:10053000FFF7C6FFA1682448FFF7C2FFE168234820
:10054000FFF7BEFF21692248FFF7BAFF6169214822
:10055000FFF7B6FFA1692048FFF7B2FFE1691F4826
:10056000FFF7AEFF1E48FFF7ABFF29461D48FFF718
:10057000A7FF1D4CE16A1D48FFF7A2FF216B1C4835
:10058000FFF79EFFE16B1B48FFF79AFF15F0800F06
:100590000AD115F4004F0CD11748FFF791FF0699C7
:1005A0001648FFF78DFFF8BD39461548FFF788FF5D
:1005B000EFE731461348FFF783FFEDE7BC4E000835
:1005C000CC4E0008DC4E0008EC4E0008FC4E000843
:1005D0000C4F00081C4F00082C4F00083C4F00082F
:1005E0004C4F0008584F000800ED00E0684F00082D
:1005F000784F0008884F0008B84F0008C04F000827
:10060000984F0008A84F000883691A888A4201D0D1
:10061000002070470268033A012A01D90020704780
:10062000023383610120704708B500F07FF8024A69
:10063000024B9A6008BD00BF0000000800ED00E01A
:1006400008B500F0C1F808BD304A136843F48033A0
:100650001360002300E00B462C4A126812F4003F9E
:1006600004D1591C4FF6FF729342F4D1274B1B68FB
:1006700013F4003F04D1254B1B6813F4003FFAD05C
:10068000234A136843F080531360224A136843F4EB
:1006900040431360204B1A681A601A6842F4004203
:1006A0001A601A6842F4A0521A60043B1B4A1A608E
:1006B000164A136843F080731360144B1B6813F0E1
:1006C000007FFAD0134A136843F480331360144B4D
:1006D0001B6813F4803FFAD00E4A136843F40033CA
:1006E00013600F4B1B6813F4003FFAD00A4B1A68D3
:1006F00022F003021A601A6842F002021A60064BE6
:100700001B6813F0080FFAD0704700BF0038024092
:10071000403802400070004008380240085440074A
:100720000470004008B5FFF78FFF08BD00B583B027
:10073000214A136843F0010313601F4B1B6813F039
:10074000020FFAD01D4A136843F0800313600023A0
:10075000019302E0019B01330193019B4F2BF9D9D7
:10076000164A136843F09003136000230193019B22
:100770004F2B03D8019B01330193F8E70F4A13680D
:1007800023F0030313600C490B6823F0847323F4F4
:1007900080330B600B6823F480230B60002313600D
:1007A0001268074A0749116008321360FFF7BAFF61
:1007B00003B05DF804FB00BF003802400838024077
:1007C000043802401030002484B0224B0FCB0DF1CE
:1007D000100C0CE90F00204B1B68C3F38103012BA5
:1007E00017D02BB1022B18D01C4B1D4A1A6002E007
:1007F0001A4B1B4A1A60184B1B68C3F3031304AA55
:10080000134413F8101C154A1368CB40136004B04E
:100810007047124B134A1A60EDE71349086800F05D
:100820003F000B68C3F388130A68C2F30142013228
:100830005200096811F4800F09D00A49B1FBF0F1A8
:1008400003FB01F3B3FBF2F3044A1360D3E704495B
:10085000F4E700BF04500008083802400C000020F4
:100860000024F40000127A000438024010B50A484F
:10087000FFF740FE094B19680948FFF721FE00F019
:1008800013F800244FF47A7000F02CF8013421465C
:100890000448FFF715FEF5E7145000080C0000208F
:1008A00028500008405000080A4B1B680A4AA2FB67
:1008B00003239B09013BB3F1807F09D2074A5360B0
:1008C000074BF02183F82310002393600723136064
:1008D000704700BF0C000020D34D621010E000E014
:1008E00000ED00E0034B1860024B1B68002BFBD1AE
:1008F000704700BF80020020034B1B681BB1024AF7
:100900001368013B136070478002002008B5FFF7B1
:10091000F3FF08BD014B1868704700BF10000020AE
:100920000A44914200F1FF3300D1704710B511F82D
:10093000014B03F8014F9142F9D110BD2DE9F04769
:1009400088B0002B149F109DDDF84CA01E46144665
:10095000B8BF03F10043129A27F02007B6BF1E4626
:1009600000232D23462F137004D0452F00D10135CD
:10097000022300E0032307AA049206AACDE902A2FB
:10098000CDE900352246334601F07EFD472F8046F3
:1009900002D1119BDB0722D5462F08EB050911D1A7
:1009A00098F80030302B0AD100220023204631462F
:1009B00004F06CF918B9C5F10105CAF80050DAF86D
:1009C00000309944002200232046314604F05EF9AD
:1009D00008B1CDF81C903022079B4B4508D3079BEC
:1009E000159AA3EB08034046136008B0BDE8F087F2
:1009F000591C07911A70EFE7F7B50029BABF4942B1
:100A00002D232B2309290270437021DD0DF10703EB
:100A10001F460A2691FBF6F206FB121430346329B6
:100A200003F1FF3503F8014C0ADC303205F8012CE4
:100A3000023B821CBB42144605D3201A03B0F0BD12
:100A40002B461146E6E713F8011B02F8011BF1E7FC
:100A5000302319448370041DC170EEE72DE9F04F77
:100A600091B00C461A9F93461E46054602F0E4FDDF
:100A700003680993184600F0A1FD00230E933B681C
:100A80000A90073323F0070303F1080294F8188053
:100A9000D4F800A03A60D3E90023C4E91223D4E9D2
:100AA000127929F000430B934FF0FF32A84B0B99BA
:100AB000384604F01DF968BB4FF0FF32A44B0B9988
:100AC000384604F0F7F828BB002200233846494690
:100AD00004F0E6F810B12D2384F843309D4F9E4B6F
:100AE000B8F1470F88BF1F46032323612AF0040390
:100AF00023604FF0000900965B460FAA2146284666
:100B000000F0CEF9013040F093804FF0FF3011B08B
:100B1000BDE8F08F3A464B463846494604F0E8F8BF
:100B200060B1002200233846494604F0B9F810B1FC
:100B30002D2384F84330894F894BD1E763685A1CD1
:100B400008F0DF0142D106236360002206920EAA5C
:100B5000CDE904820DAA4AF4806303920DF13302B9
:100B6000CDE901322360636800933A464B4628463C
:100B70000B91FFF7E3FE0B99472907460D9908D122
:100B8000C81C02DB6368994240DDA8F102085FFAE5
:100B900088F8B8F1650F1FD80139424604F15000BA
:100BA0000D91FFF729FF0E9A1318012A8146236140
:100BB00002DC2268D20701D5013323619DF833306E
:100BC000002B98D02D2384F8433094E74729BCD1DB
:100BD000002BBAD10123B7E7B8F1660F18D100296D
:100BE00063680BDD216113B92268D00702D5013398
:100BF0000B442361A1654FF00009DFE713B92268B8
:100C0000D20701D50233F4E70123F2E74FF067087A
:100C10000E9B994205DB23682161D807EAD54B1C5E
:100C2000E7E70029D4BFC1F1020201221344E0E743
:100C300023685A0507D423693A4659462846B047DF
:100C4000013029D161E7B8F1650F40F2D880002268
:100C50000023D4E9120104F019F888B30123414AB2
:100C600059462846B04701303FF44FAFDDE90D2328
:100C70009A4202DB2368D8070ED5DDE909235946DD
:100C80002846B04701303FF440AF002704F11A086E
:100C90000E9B013BBB4209DC23689F0700F1FB80F0
:100CA000E0680F9B9842B8BF184630E701234246E0
:100CB00059462846B04701303FF427AF0137E7E7F0
:100CC0000D9B002B2BDC0123264A59462846B047B2
:100CD00001303FF41AAFDDE90D23134302D123683D
:100CE000D907D9D5DDE9092359462846B04701304F
:100CF0003FF40BAF4FF0000804F11A090D9B5B4263
:100D0000434501DC0E9B97E701234A465946284696
:100D1000B04701303FF4F9AE08F10108EEE70E9A52
:100D2000A36D9A42A8BF1A46002A904607DD1346D3
:100D300059463A462846B04701303FF4E6AE04F142
:100D40001A034FF0000A28EAE8780B9316E000BF78
:100D5000FFFFEF7F4C50000850500008545000082F
:100D6000585000085C50000801230B9A5946284649
:100D7000B04701303FF4C9AE0AF1010AD4F85890E7
:100D8000A9EB08035345EFDCDDE90D239A421ADB9A
:100D90002368DA0717D4DDE90D2391451BDBA3EBAC
:100DA0000908B8F1000F08DD434607EB0902594670
:100DB0002846B04701303FF4A8AE002728EAE8787B
:100DC00004F11A0913E0DDE9092359462846B04722
:100DD0000130E0D199E6A3EB0208E2E701234A469D
:100DE00059462846B04701303FF48FAE0137DDE960
:100DF0000D239B1AA3EB0803BB42EFDC4CE70E9AD2
:100E0000012A01DCDB0734D501233A46594628463E
:100E1000B04701303FF479AEDDE909235946284651
:100E2000B04701303FF471AE00220023D4E9120133
:100E300003F02CFFC8B90E9B7A1C013B594628468B
:100E4000B04701300DD160E601234246594628469D
:100E5000B04701303FF459AE01370E9B013BBB4216
:100E6000F2DC4B4604F15002E7E6002704F11A08D1
:100E7000F3E701233A46E1E7012342465946284673
:100E8000B04701303FF441AE0137E3680F9A9B1A37
:100E9000BB42F1DC04E7002704F11908F5E700BFC5
:100EA0002DE9F04791461F468A680B69DDF82080DE
:100EB0009342B8BF1346C9F8003091F84320064664
:100EC0000C4612B10133C9F800302368990642BFBD
:100ED000D9F800300233C9F80030256815F006054E
:100EE00007D104F1190AE368D9F800209B1AAB4234
:100EF00028DC94F843302268003318BF012392069F
:100F00002DD404F1430239463046C047013020D089
:100F10002368E568D9F8002003F00603042B08BF16
:100F2000AD1AA36822690CBF25EAE5750025934236
:100F3000C4BF9B1AED184FF000091A344D451AD161
:100F4000002008E00123524639463046C0470130B0
:100F500003D14FF0FF30BDE8F0870135C3E7E1185A
:100F60005A1C302081F84300224494F8451082F83E
:100F700043100233C5E70123224639463046C047B5
:100F80000130E6D009F10109D8E700002DE9F0436E
:100F900006460C4601F14300097E85B06E2998464D
:100FA00017460C9B00F0BA8024D8632939D00AD8A0
:100FB000002900F0C380582900F0918004F1420517
:100FC00084F8421035E0642901D06929F6D12568FA
:100FD0001A6815F0800F02F104012CD01268196014
:100FE000002A03DA2D23524284F84330DFF8BCC1D3
:100FF0000A233FE0732900F0A58008D86F2921D08B
:101000007029DBD1226842F02002226003E07529BA
:1010100018D07829D2D1782284F84520DFF890C101
:1010200061E01A68111D1960136884F8423004F1F8
:101030004205012393E01268196015F0400F18BFB4
:1010400012B2CDE7D4F800C01A681CF0800F02F18C
:1010500004051D6001D0126803E01CF0400FFAD0B7
:101060001288DFF848C16F290CBF08230A2300212A
:1010700084F843106568A560002DA2BF216821F0A7
:10108000040121600AB9002D46D00546B2FBF3F1F8
:1010900003FB112E93421CF80EE005F801ED39D93F
:1010A000082B0BD12368DA0708D5236962689A42B6
:1010B000DEBF302305F8013C05F1FF35401B206100
:1010C000CDF800803B4603AA21463046FFF7E8FEF4
:1010D000013049D14FF0FF3005B0BDE8F083DFF8B3
:1010E000CCC084F845101D68216855F8042B1D609C
:1010F0000D060BD5CD0744BF41F0200121601AB980
:10110000236823F0200323601023B0E74B0648BF79
:1011100092B2EFE70A46B9E70546C1E71A68D4F884
:1011200000C06169151D1D601CF0800F136801D09F
:10113000196003E01CF0400FFAD0198000232361EE
:101140000546BDE71A68111D19601568626800211F
:10115000284602F095FA08B1401B6060636823617D
:10116000002384F84330ABE723692A4639463046EA
:10117000C0470130AED023689B0713D4E068039BBF
:101180009842B8BF1846A7E701234A463946304679
:10119000C04701309ED00135E368039A9B1AAB42E9
:1011A000F2DCEBE7002504F11909F5E75E500008D1
:1011B0006F5000082DE9F04F87B0174603938B68F6
:1011C0005A1EB2F5AE7F83BF6FF4AE755B19029302
:1011D000002386BF40F25D138B6002930B688B4641
:1011E000002543F4F0634BF81C3BCDE904558146E0
:1011F0000C465E46AA46A8460195A26882B13B68A5
:101200001B78492B75D04FD8392B41D8312B80F022
:1012100087802D2B00F08F8017D82B2B00F08B8030
:10122000B8F1000F03D0236823F4807323600AF120
:10123000FF3ABAF1010F00F2DD805E4500F2CF8087
:101240000125284607B0BDE8F08F2E2B00F09380D3
:10125000302BE5D12168C80562D5029B21F08001C1
:10126000216008F101081BB1013B01320293A26029
:10127000A368013BA3602369013323617B68013BC1
:10128000002B7B6040F3A2803B6801333B60B4E7F6
:10129000452B7AD0462B64D0412BC1D1BAF1010F36
:1012A000BED14FF0020A43E0652B6ED01AD8542B02
:1012B0005CD013D84E2BB3D1BAF1000F42D1B8F1A4
:1012C000000F42D1226802F4E061B1F5E06F3CD139
:1012D00022F4F06222604FF0010A29E0592B1BD062
:1012E000612BDAE76E2BE7D012D8662B39D0692B49
:1012F00096D195BBB8F1000F95D1226802F4E06158
:10130000B1F5E06F93D122F4F062226001250FE085
:10131000742B2BD0792B83D1072D81D1082507E0A1
:101320001AEB050F7FF47CAF226822F4C0722260B2
:1013300006F8013B9CE7226810067FF571AF22F0AA
:101340008002F4E7BAF1020F3DD0012D02D0042D46
:101350007FF466AF0135EDB2EAE7032DFAD0052D33
:10136000F6E7022D7FF45CAF0325E1E7062D7FF45D
:1013700057AF0725DCE7226891057FF551AF22F4CE
:1013800020722260CDF80480D2E7226802F4A061C6
:10139000B1F5806F06D050057FF542AFB8F1000F70
:1013A0003FF445AF910558BF019922F4F06258BF50
:1013B000A8EB010142F4C07258BFCDE904162260C7
:1013C0004FF00008B4E74FF0030AB1E7D4F88031DA
:1013D00039464846984700283FF40FAF20E7D4F835
:1013E0007C3116F8011D3A46484698472369013B6F
:1013F000236122E76B1E062B25D8022D36D85E45C9
:101400007FF61EAFD4F87C3116F8011D3A464846E7
:1014100098472369013B2361F1E70298D4F87C31B6
:1014200010F8011D02903A46484698472369013B4F
:1014300023610AF1FF3A5FFA8AFABAF1020FECD19E
:10144000033DEDB2761B2368DA052FD55B0510D579
:101450005E457FF6F5AED4F87C3116F8011D3A46AC
:10146000484698472369013B2361F1E7AA46029663
:10147000DFE716F8011C2369652903F1FF3306F144
:10148000FF3523610CD045290AD0D4F87C313A4687
:1014900048469847236916F8021C013BB51E236194
:1014A000D4F87C313A46484698472E46256815F0D0
:1014B000100559D13570236803F4C063B3F5806F0C
:1014C0001CD1019B4345A3EB080224D100225946BD
:1014D000484600F095FED4F800C0039B1CF0020FB4
:1014E00006460F461B6821D003991A1D0A601B6827
:1014F000C3E90067E3680133E360A2E6049B002BC5
:10150000E4D005990A232A460131484600F0F6FE48
:10151000049B059EC21A04F26F139E4228BF04F575
:10152000B7761249304600F029F8CFE71CF0040FD7
:1015300003F1040E03D00399C1F800E0D7E7039A42
:10154000C2F800E0D3F8008002460B4603F0D0FB5F
:1015500028B1074800F00EF8C8F80000CAE7304686
:10156000394603F023FCF7E700256AE680500008BF
:1015700001530008004870470000C07F0EB400B55A
:101580009CB01DAB029006906FF000410948079196
:101590000491094953F8042B05910068019302A9AD
:1015A00002F0C4FD029B00221A701CB05DF804EB2F
:1015B00003B07047100000200802FFFF034613F835
:1015C000012B002AFBD1181A013870472DE9F04190
:1015D0000F46904602F06AFB04460D46B8F1000F34
:1015E00011D0C7F30A53C3F16B03002B0BDD1B05AE
:1015F00003F17F55002405F5401522462B4603F0E4
:10160000DDF804460D4620462946BDE8F08100007D
:101610002DE9F04FA1B01F4600231C939C4B17925D
:101620001B680493834618460E46FFF7C7FF4FF02A
:10163000000804464FF000091B961B9A13780D2BE7
:1016400032D8092B36D2002B3ED000230D931B9DA0
:101650002B78302B40F0AA806B78582B01D0782B58
:1016600067D10D9B01931CAB009302971DAB894A78
:101670001BA9584601F006FD10F00704064605D0E8
:10168000062C2BD1013500231B950D93179B002BA6
:1016900040F09D850D9BE3B1424609F100431046A1
:1016A000194621B0BDE8F08F2B2B06D02D2B13D07F
:1016B000202BCAD101321B92BFE700230D93531C8C
:1016C0001B935378002BC2D1179B1B96002B40F025
:1016D0007C8542464B46E2E70123EFE71C9A3AB18C
:1016E00035211EA802F0D4FB1C99584602F04CF894
:1016F000013C042C06D8DFE804F00A0314170A00A2
:10170000DDE91E893107C1D549F00049BEE7DDE9B1
:101710001E831D9A23F4801302F2334243EA0259D6
:10172000F0E7DFF87491EDE76FF000494FF0FF3814
:10173000E8E71B9B5A1C1B925B78302BF9D0002BDF
:10174000A4D001234FF0000A05931B9B0893CDF80A
:1017500018A057460A221B980578A5F13003D9B284
:10176000092925D92246049902F0EEFD70B3002024
:101770002B463C4604900246652B01D0452B13D1E5
:101780001CB9059B03439FD000241B9E731C1B9315
:1017900073782B2B73D02D2B77D04FF0000CA3F147
:1017A000300109297ED91B9600259DE00023C9E759
:1017B000082FD8BF069900F10100DABF02FB013300
:1017C000069302FB0A3A01371B90C4E71B9B1A19C8
:1017D0001B921B5D002F37D004903C46A3F13002D2
:1017E000092A12D90122C7E71B9B5A1C1B925B785E
:1017F0000130302BF8D0A3F13102082A00F2EC843A
:101800001B9A0490002008920446303B00F101022C
:1018100014D0049911440491224600EB040E0A21CD
:10182000724513D12218082A04F1010404441CDC77
:1018300006990A2202FB0133069300221B9B591CC6
:101840001B915B781046C9E73846D2E7082A04DCCA
:10185000069D4D4306950132E2E702F1010CBCF111
:10186000100FD8BF01FB0AFAF5E7102CDCBF0A22E3
:1018700002FB0A3AE1E700230493012281E74FF0DB
:10188000000CB31C1B93B37889E74FF0010CF8E709
:10189000E8510008885000080000F07F1B9B591C8D
:1018A0001B915B78302BF9D0A3F1310108293FF669
:1018B0007BAF303B07931B9B09931B9B5D1C1B95C8
:1018C0005B78A3F1300EBEF1090F31D909996D1A79
:1018D000082D44F61F6503DC07998D42A8BF0D460D
:1018E000BCF1000F00D06D42002C4ED10599014390
:1018F0007FF4CCAE002A7FF4E7AE4E2B25D01FDC60
:10190000492B7FF4E1AEA2491BA801F0F1FD0028AC
:101910003FF4DAAE1B9B9F49013B1BA81B9301F0D0
:10192000E7FD10B91B9B01331B93DFF88092ADE6F6
:10193000079D0A2101FB0535A5F130030793BCE79C
:10194000692BE0D06E2B7FF4BFAE93491BA801F04A
:10195000CFFD00283FF4B8AE1B9B1B78282B0ED17F
:101960001EAA8E491BA801F0D7FD052807D11F9B91
:10197000DDF8788043F0FF4949F4E00986E68848BD
:1019800002F0CCFC8046894680E6049B0698EB1A60
:10199000002F08BF2746102C07932646A8BF102605
:1019A00002F092FE092C8046894613DD7D4B03EB45
:1019B000C60353E9122302F001FF804650468946D0
:1019C00002F082FE02460B464046494602F040FDC8
:1019D000804689460F2C36DC079B002B3FF456AE21
:1019E00022DD162B09DC6F4C04EBC304D4E90001A3
:1019F00042464B4602F0E2FEC4E7079AC4F12503D3
:101A0000934220DB674DC4F10F0405EBC40142464D
:101A10004B46D1E9000102F0D1FE079B1C1B05EBF0
:101A2000C405D5E90023E5E7079B16330BDB049BD0
:101A30005C4A5D1B02EBC505D5E9002340464946DB
:101A400002F0E6FF9EE7079BA4EB060A9A44BAF170
:101A5000000F75DD1AF00F030AD0524901EBC301E4
:101A600042464B46D1E9000102F0A8FE8046894675
:101A70003AF00F0A52D0BAF59A7F27DD4FF0000AEC
:101A8000CDF810A0CDF820A0CDF818A02223DFF8C3
:101A90001C91CBF800304FF00008089B002B3FF45E
:101AA000F5AD1C99584601F06FFE0699584601F0B5
:101AB0006BFE0499584601F067FE0899584601F0FC
:101AC00063FE5146584601F05FFEDFE500234FEA12
:101AD0002A1A404649461E46BAF1010F21DC0BB1D5
:101AE00080468946304BA9F1547903EBC60642463D
:101AF0004B46D6E9000102F061FE2C4B0A460B4032
:101B00002B498B428046B9D8A1F580118B4286BF04
:101B1000DFF8A0904FF0FF3802F1547900230593CD
:101B200085E01AF0010F07D01F4B03EBC603D3E982
:101B3000002302F043FE012301364FEA6A0ACBE795
:101B4000ECD0CAF1000A1AF00F020AD0154B03EBD1
:101B5000C20340464946D3E9002302F059FF8046BC
:101B600089465FEA2A1AD9D0BAF11F0F24DD4FF057
:101B7000000ACDF810A0CDF820A0CDF818A022239F
:101B80004FF000084FF00009CBF8003085E700BFA8
:101B900051500008DC510008595000089C500008C2
:101BA0000153000828520008005200080000F07F8E
:101BB0000000A07CFFFFEF7F1AF0100318BF6A231C
:101BC000B44E05934046494600231AF0010F04D055
:101BD000D6E9002302F0F2FD01235FEA6A0A06F16A
:101BE0000806F2D10BB180468946059BBBB1C9F30B
:101BF0000A53C3F16B03002B494610DD1F2B40F342
:101C00002881342BDEBF203B4FF0FF3202FA03F372
:101C10004FF00008CCBF4FF05C7903EA01090022C5
:101C200000234046494603F031F800289FD1069B27
:101C300000933A4623460899584601F0F7FD08906C
:101C400000283FF41BAF049B5D1B079B002BB4BF18
:101C50002B4600230E93079B4FF0000A23EAE37301
:101C60001693CDF810A0089B5846596801F058FD0E
:101C7000069000283FF40AAF089B1A69023203F16C
:101C80000C0192000C30FEF74BFE1EAB01931DAB16
:101C9000009342464B465846CDE90A8902F07CF84B
:101CA0001C9000283FF4F2AE0121584601F04CFE92
:101CB0000490034600283FF4E9AE1D9D1E9A002DB6
:101CC000ABBF0E9B169B169C0E9EACBFEE185C1B0A
:101CD000059BED1A1544704B013D9D42C2F1360241
:101CE00080F2C9805B1B1F2BA2EB03024FF00107A0
:101CF00000F3B68007FA03F30F930025B718059B8E
:101D0000BE4214441C443346A8BF3B46A342A8BF6E
:101D10002346002BC2BFFF1AE41AF61A0E9B002BB3
:101D200017DD1A460499584601F0A8FE04900028D1
:101D30003FF4ACAE01461C9A584601F00EFE0990E5
:101D400000283FF4A3AE1C99584601F01DFD099BE5
:101D50001C93002F00F39380079B002B08DD169A3D
:101D60000699584601F08AFE069000283FF48EAE90
:101D7000002C08DD22460699584601F0CDFE06905B
:101D800000283FF483AE002E08DD32460499584601
:101D900001F0C2FE049000283FF478AE069A1C9928
:101DA000584601F026FF824600283FF46FAE00241B
:101DB000C3680499C4600C9301F001FFA04271DA7A
:101DC0000C9B53EA080340F09780C9F31303002BE0
:101DD00040F0928029F000431B0D1B05B3F1D66F34
:101DE00040F28A80DAF8143023B9DAF81030012B87
:101DF00040F3828051460122584601F08DFE04993D
:101E0000824601F0DCFE002876DD0599234A4B4628
:101E1000002900F0928002EA0901B1F1D66F00F3C7
:101E20008C80B1F15C7F7FF7AAAE1D4A0023CDE91B
:101E300014324046DDE91423494602F0BFFC0B464C
:101E4000034308BF22238046894608BFCBF80030F1
:101E500027E64FF0FF3202FA03F303EA0808DEE652
:101E6000C5F17F4505F57F0505F57B45E23507FAA8
:101E700005F50F9742E7012300250F933EE73A4609
:101E80001C99584601F048FE1C9000287FF464AF6E
:101E9000FCE500BFB050000802FCFFFF0000F07F2F
:101EA00000005039CDF8249066D10C9AC9F3130381
:101EB0005AB39D4A93422CD1059B404603B39B4A9B
:101EC0004B461A40B2F1D46F4FF0FF311BD8120DC0
:101ED000C2F16B0301FA03F398421AD1944B099AA9
:101EE0009A4202D101303FF4D1AD904B099A1A4089
:101EF00002F580194FF00008059B002B95D1D0E525
:101F00004FF0FF33E8E70B46E6E753EA08033FF4F8
:101F10007CAFE5B1099B1D42EED00C9B059A404673
:101F20004946C3B1FFF752FB02460B46DDE90A0101
:101F300002F08EFA80468946DEE71340A3F580134F
:101F40006FEA13596FEA09594FF0FF38D4E70F9B36
:101F500013EA080FE0E7FFF739FB02460B46DDE91D
:101F60000A0102F073FA002200238046894602F03B
:101F70008DFE0028C0D002E60499504601F05AFFB9
:101F800000224FF0804306460F4602F093FE0028E1
:101F900075D00C9B002B47D0664F0026654D099BE2
:101FA00023F000431B0D1B050F930F9A624B9A42BF
:101FB00040F0CA80DDE90A23CDE91423099BA3F18F
:101FC00054794046494601F071FE02460B463046C0
:101FD000394602F0F3FB42464B4602F039FA0B4613
:101FE0005249564A1940914280465ED90B9B02F1F4
:101FF0005472934203D10A9B01333FF447ADDFF89B
:1020000030914FF0FF381C99584601F0BDFB0699FE
:10201000584601F0B9FB0499584601F0B5FB51460A
:10202000584601F0B1FB1EE6B8F1000F19D1099B2B
:10203000C3F31303E3B900223E4B3046394602F0A6
:102040002FFEC8B900223E4B3046394602F0B6FB9F
:1020500004460D4605F1004318941993DDE918670D
:102060009DE7B8F1010F03D1099B002B3FF487AD29
:102070000026344F002491E70C9C314DEAE7304BA9
:1020800000223046394602F099FB0C9B04460D466F
:1020900033B901F1004310901193DDE910677EE739
:1020A00002460B46CDE91023F7E703F15479059B6F
:1020B000002BA8D129F000431B0D0F9A1B059A4253
:1020C000A1D12046294602F0C1FE02F049FB02469A
:1020D0000B462046294602F0B9F9C9F313030C9ABE
:1020E00043EA0803134304460D4668D00AA3D3E924
:1020F000002302F0D5FD00287FF4D3AC08A3D3E978
:1021000000232046294602F0E9FD00283FF47BAF7A
:10211000C7E400BFAFF300809535A094FFFFDF3F19
:1021200035E5AF350000E03FFFFF0F000000F07F16
:10213000FFFFEF7F0000F03F0000E07FFFFF9F7C8C
:102140000000E03F0000F0BF059B13B30F9BB3F10D
:10215000D46F1ED826A3D3E900232046294602F0D7
:10216000A9FD90B12946204602F000FE002808BFD4
:10217000012002F0A9FA0C9B04460D46D3B901F1E7
:10218000004312901393DDE912670F9A07F1D663AB
:102190009F1ADDE90A0101F089FD02460B4630462F
:1021A000394602F00BFBDDE90A2302F051F98046C3
:1021B00089467CE702460B46CDE91223E3E70EA3EE
:1021C000D3E9002302F06CFD9FE700230D93179ADB
:1021D0001B9B1360FFF75EBA652B3FF44CAB452B9E
:1021E0003FF449AB0122FFF781BB00BFAFF3008092
:1021F0000000C0FFFFFFDF419535A094FFFFCF3FF8
:10220000014BFFF705BA00BF780000202DE9F04729
:10221000394F86460846054615F8014BE65D16F02F
:10222000080634D12D2C34D12C784FF00108851CB0
:10223000002B5CD0102B09D1302C07D1287800F06E
:10224000DF0058284ED16C7810230235B8F1000F0A
:1022500014BF4FF0004C6FF0004C0027BCFBF3F9AB
:10226000384603FB19CAA4F13006092E18D83446A3
:10227000A34224DD7E1C07D081451DD301D1A24598
:102280001ADB00FB0340012715F8014BEBE728465A
:10229000C1E72B2C08BF2C78B04608BF851CC7E7C8
:1022A000A4F14106192E01D8373CE1E7A4F16106FB
:1022B000192E04D8573CDBE74FF0FF37E4E77B1CCF
:1022C00006D12223CEF80030604642B9BDE8F0873F
:1022D000B8F1000F00D04042002AF7D007B1691EC4
:1022E0001160F3E73024002BB0D10823AEE7302C87
:1022F000A4D00A23AAE700BFD9500008FFF786BF81
:1023000030B5141E05469BB0184605DA8B232B60AA
:102310004FF0FF301BB030BD4FF40273ADF80C30FE
:1023200014BF04F1FF332346029305934FF6FF7366
:1023300000910491ADF80E3002461E9B6946284676
:1023400001F0F4FE431CBCBF8B232B60002CE1D0BA
:10235000009B00221A70DDE707B5009313460A467A
:10236000014603480068FFF7CBFF03B05DF804FBAC
:10237000100000202DE9F74F03690C69A342804645
:102380007FDB013C01F11407A00008F114052B18B4
:10239000019357F8243055F8242001339A4207EB73
:1023A0000009B2FBF3F631D34FF0000ABC46AE464B
:1023B000D3465CF8042B93B206FB03A34FEA134AFF
:1023C0009BB2ABEB0303120CDEF800B006FB02A2DB
:1023D00013FA8BF34FEA124A1FFA82FBDEF8002051
:1023E000CBEB124202EB23429BB243EA0243E145AC
:1023F0004FEA224B4EF8043BDBD22B5833B9019BFA
:10240000043B9D421A4630D3C8F81040404601F0C4
:10241000D6FB002825DB013628464FF0000C57F884
:10242000042BD0F800E093B2ACEB0303120C13FAC8
:102430008EF3C2EB1E4202EB23429BB243EA0243FD
:10244000B9454FEA224C40F8043BE8D255F8242025
:1024500005EB84032AB9043B9D421A460BD3C8F806
:102460001040304603B0BDE8F08F1268043B002AEC
:10247000CAD1013CC5E71268043B002AEFD1013CF8
:10248000EAE70020EEE700002DE9F04F476A97B039
:1024900080461D46239E92469B4647B9102001F078
:1024A000CFF8C0E90177C8F824000760C760D8F802
:1024B0002430196859B15A684A60012393408B60EF
:1024C000404601F061F9D8F8243000221A602B1E32
:1024D000AABF002323F0004B3360A74BBCBF0122EF
:1024E000326033EA0B035C461AD1229A42F20F7330
:1024F0001360CBF3130353EA0A0300F05E85249BB9
:1025000053B99E4B21E09E4B05930833249A1360E8
:10251000059817B0BDE8F08F984B05930333F5E7A6
:102520000022002350465946CDE90CAB02F0AEFB29
:10253000074660B1229A01231360249B002B00F010
:102540003985904B249A1360013B0593E0E714AB67
:10255000019315AB00934046DDE90C2301F01CFC10
:10256000CBF30A560390002E7FD00D9B1297C3F336
:102570001303DDE90C4543F07F5545F44015A6F201
:10258000FF360022804B2046294601F05FFF74A3EE
:10259000D3E9002302F012F973A3D3E9002301F079
:1025A00057FF044630460D4602F09EF870A3D3E96B
:1025B000002302F003F902460B462046294601F0AB
:1025C00047FF04460D4602F0A9FB00228146002386
:1025D0002046294602F064FB48B1484602F084F8E0
:1025E00022462B4602F052FB08B909F1FF39B9F136
:1025F000160F57D8654B03EBC903D3E90023DDE978
:102600000C0102F04DFB00284ED009F1FF390023E8
:102610001193149B9E1B731E099345BFC6F10103C2
:102620000893002300234CBF09930893B9F1000FCE
:102630003CDB099BCDF840904B44099300230A935F
:10264000209B092B00F2A680052BC4BF043B2093DE
:10265000209BA3F10203CCBF00240124032B00F232
:10266000A480DFE803F02D3A387BDDE914631E44D3
:1026700006F232402028C1BFC0F14000844006F27B
:1026800012402AFA00F0D6BFC0F1200020430AFA17
:1026900000F002F019F801230446A1F1F875013E9B
:1026A00012936EE70123B3E71190B2E7089BA3EB07
:1026B00009030893C9F100030A9300231093BFE7AD
:1026C00000230B93219B002B72DC012306930493C0
:1026D0001A4621920BE00123F3E700230B93219B81
:1026E0004B4406930133012B0493B8BF0123D8F860
:1026F000245000226A60042202F1140098426968A2
:102700005AD9404601F00CF8D8F8243028601B68EC
:102710000593049B0E2B00F2D280002C00F0CF809A
:10272000B9F1000F66DD194A09F00F0302EBC3038C
:10273000D3E90034CDE90E344FEA2914E00657D529
:10274000134BDDE90C01D3E9082302F061F904F031
:102750000F0482468B4603270D4D3EE00123BDE763
:1027600061436F63A787D23FB3C8608B288AC63F97
:10277000FB799F501344D33F0000F07FE2510008E3
:10278000D95100085D5000080000F83F28520008A9
:10279000005200080124002320930B944FF0FF33D4
:1027A000069304930022122393E701230B93F5E78A
:1027B000219B069304939AE70131696052009BE7DD
:1027C000E10708D5DDE90E01D5E9002301F0F6FFA8
:1027D000CDE90E01013764100835002CF0D1DDE998
:1027E0000E235046594602F013F982468B461AE0F2
:1027F0000227B1E700F09D80C9F100049C4B9D4D7C
:1028000004F00F0203EBC203D3E90023DDE90C015E
:1028100001F0D4FF241182468B4600230227002CAE
:102820007CD1002BE1D1119B002B00F08480002291
:10283000914B504659465D4602F032FA00287AD054
:10284000049B002B77D0069B002B36DD5046594663
:1028500000228A4B01F0B2FF069C09F1FF36824646
:102860008B460137384601F03FFF52465B4601F088
:10287000A5FF0022824B01F0EBFDA1F15075CDE9DF
:102880000E010F95002C59D100227E4B504659461F
:1028900001F0DCFD0E9A2B4682468B4602F01EFAB2
:1028A000002840F088820E9A05F1004350465946B0
:1028B00002F0F6F9002840F07C82DDE90CAB159BB4
:1028C000002BC0F24D81B9F10E0F00F34981684B26
:1028D00003EBC903D3E90034CDE90634219B002B77
:1028E00080F2D480049B002B00F3D08040F0608203
:1028F0000022644BDDE9060101F060FF52465B46B1
:1029000002F0E2F9049C2646002840F03982059D39
:10291000312305F8013B09F1010935E2E20705D54C
:10292000D5E9002301F04AFF01370123641008357F
:1029300075E7022777E74E46049C93E74C4B03EB81
:10294000C40353E90201059B1C440B9B002B44D09C
:1029500002460B4600204C4902F05AF8DDE90E23EE
:1029600001F074FDCDE90E01059D5946504602F077
:10297000D5F9074601F0B8FE02460B4650465946C7
:1029800001F064FD303705F8017BDDE90E23824656
:102990008B4602F085F9002860D152465B46002044
:1029A000354901F053FDDDE90E2302F079F90028E5
:1029B00040F0B680A54280D00022304BDDE90E0108
:1029C00001F0FCFE0022CDE90E012C4B5046594689
:1029D00001F0F4FE82468B46C7E7DDE90E2301F0E5
:1029E000EDFECDE90E01059F25465946504602F001
:1029F00095F9139001F078FE02460B465046594671
:102A000001F024FD139B303307F8013BA7428246B7
:102A10008B464FF0000225D11B4BDDE90E0101F082
:102A200017FD02460B465046594602F057F900285A
:102A300076D1DDE90E230020134901F007FD02469F
:102A40000B465046594602F02BF900283FF435AFAB
:102A500015F8013C302B05F1FF3201D0B1464EE0B4
:102A60001546F5E7054B01F0A9FE82468B46BCE70B
:102A700028520008005200080000F03F00002440E7
:102A800000001C40000014400000E03F5F46059D30
:102A9000DFF84CB556464FF0000ADDE90623304614
:102AA000394601F0B5FF02F039F9044601F01CFE89
:102AB000DDE9062301F082FE02460B463046394628
:102AC00004F1300601F0C2FC05F8016B059E049F7D
:102AD000AE1BB74202460B4635D101F0B9FCDDE929
:102AE000062306460F4602F0F9F8C0B9DDE90623D1
:102AF0003046394602F0CAF808B1E3070FD403990B
:102B0000404600F041FE0023229A2B7009F1010398
:102B10001360249B002B3FF4FBAC1D60F8E44E4691
:102B200015F8012C392A05F1FF3306D1059A9A428E
:102B300007D10599302201360A701A7801321A70CD
:102B40008CE71D46ECE752465B4601F037FE00225B
:102B5000002306460F4602F099F800289DD0CEE7E4
:102B60000B9A002A00F0CC80209A012A00F3AE8054
:102B7000129A002A00F0A68003F233430A9C089DB3
:102B8000089A1A440892099A01211A444046099267
:102B900000F0DAFE0646002D0CDD099B002B09DD56
:102BA000AB42089AA8BF2B46D21A0892099AED1A8E
:102BB000D31A09930A9BF3B10B9B002B00F0A4805E
:102BC000002C10DD31462246404600F057FF039AA4
:102BD00001460646404600F0C0FE039907464046BF
:102BE00000F0D2FD03970A9B1A1B04D003994046BC
:102BF00000F044FF03900121404600F0A5FE109B29
:102C0000002B044640F382801A460146404600F0FD
:102C100035FF209B012B04467BDD0027236904EB55
:102C20008303186900F040FEC0F12000099B18449E
:102C300010F01F0000F08B80C0F12003042B40F344
:102C40008480C0F11C00089B03440893099B034443
:102C500005440993089B002B05DD1A46039940465D
:102C600000F05AFF0390099B002B05DD21461A4610
:102C7000404600F051FF0446119B002B69D02146CD
:102C8000039800F09CFF002863DA00230A220399CE
:102C9000404600F090FD0B9B039009F1FF39002B9B
:102CA00000F09281002331460A22404600F083FD65
:102CB000069B002B064600F38780209B022B40F3E7
:102CC00083804EE0149BC3F1360357E7049B5C1EE0
:102CD0000A9BA342BFBF0A9B0A94E21A109BB6BF8D
:102CE0009B181C1B1093049BB8BF0024002BB9BF7A
:102CF000089B049A089D049BBCBF9D1A00233FE7D4
:102D00000A9C089D0B9E46E70A9A6FE7209B012BC1
:102D100017DCBAF1000F14D1CBF313039BB92BF0DE
:102D200000473F0D3F0537B1089B01330893099BCE
:102D3000013309930127109B002B7FF46FAF012013
:102D400074E70027F7E75746F5E783D018461C30AD
:102D500079E7049B002B31DC209B022B2EDD049BAA
:102D60000693069B63B921460522404600F023FDE9
:102D700001460446039800F022FF00283FF7C7AD44
:102D8000219B059D6FEA030900272146404600F07C
:102D9000FBFC002E3FF4B3AE2FB1B74203D039464F
:102DA000404600F0F1FC3146404600F0EDFCA6E65E
:102DB00000242646E4E7B1462646A8E50B9B002BF7
:102DC00000F0BC80049B0693002D05DD31462A46A9
:102DD000404600F0A1FE0646002F52D071684046E2
:102DE00000F09EFC326902320546920006F10C01A9
:102DF0000C30FDF795FD01222946404600F08CFE7F
:102E0000059B01330493DDE9052313440A930AF07B
:102E10000103374609930646049B0398214603F1B4
:102E2000FF3AFFF7A7FA3946069000F1300B0398F6
:102E300000F0C5FE324608902146404600F0D9FE1B
:102E4000C2680546FAB90146039800F0B8FE02468A
:102E5000294640460B9200F097FC209B0B9A049D5C
:102E600043EA0201099B0B430FD1BBF1390F28D074
:102E7000089B002B02DD069B03F1310B8AF800B0A2
:102E800083E73046BCE70122E2E7089B002B04DB26
:102E900020990B4309990B431ED1002AEEDD012234
:102EA0000399404600F038FE2146039000F087FE6B
:102EB000002803DCE2D11BF0010FDFD0BBF1390F9A
:102EC000D9D139238AF8003015F8013C392B05F1A6
:102ED000FF3264D0013369E0002A07DDBBF1390F0E
:102EE000EFD00BF101038AF800304EE7049B0A9AF9
:102EF00003F801BC93423AD000230A2203994046CA
:102F000000F059FCB74203904FF000034FF00A0263
:102F10003946404607D100F04EFC07460646049B62
:102F20000133049378E700F046FC3146074600235E
:102F30000A22404600F03FFC0646F0E7049B069359
:102F4000059D03982146FFF715FA00F1300B059B0C
:102F500005F801BBEA1A069B934207DD00230A220B
:102F60000399404600F027FC0390EAE7002701227E
:102F70000399404600F0D0FD2146039000F01FFE6B
:102F80000028A1DC02D11BF0010F9DD115F8013CF6
:102F9000302B05F1FF327FF4F8AE1546F6E7059BBE
:102FA000934205D1059A09F1010931231370ECE62A
:102FB000154689E7084BFFF7C8BA249B002B7FF41E
:102FC000A2AA064BFFF7C1BA069B002BB8DC209BD8
:102FD000022B3FF7C6AEB3E75C500008D95100089A
:102FE00000002440F0B506694B119E4200F1140424
:102FF00030DD11F01F0104EB860604EB830208D1DB
:103000002146B2420B4611D252F8043B41F8043B30
:10301000F7E754F82350C1F1200CCD400432234689
:10302000964217460CD81D6005B104331A1BA34203
:103030004FEAA20208BF0023026108BF4361F0BD4E
:103040003F6807FA0CF73D4343F8045B52F8045B12
:10305000CD40E5E72346E9E7A0F13003092B02D88C
:103060002038C0B27047A0F16103052B01D8473862
:10307000F7E7A0F14103052B01D82738F1E700203D
:10308000704700002DE9F04F8BB08B460693B74B8D
:1030900002901B68039318469046FEF78FFA039B35
:1030A000DBF800200190034413F8013C0793931CC4
:1030B000C2F1FF2202F57F02FE3202EB030A1F4635
:1030C00013F8010B3028F8D0FFF7C6FF044600289C
:1030D00067D1019A0399384601F036F9002863D187
:1030E000019BF85CFE18FFF7B7FF00285FD033465E
:1030F000187830281F4603F10103F9D0FFF7ACFF21
:10310000B0FA80F56D0934464FF0010A3A4616468A
:1031100001323078FFF7A0FF0028F8D1019A039917
:10312000304601F011F950B954B9019BF418224608
:10313000164601323078FFF78FFF0028F8D10CB126
:10314000A41BA4003378502B01D0702B3DD1737891
:103150002B2B2ED02D2B30D0711C4FF0000908786E
:10316000FFF77AFF431EDBB2182B2ED8A0F1100216
:1031700011F8010FFFF770FF431EDBB2182B1FD9A8
:10318000B9F1000F00D052421444CBF80010F5B151
:10319000BAF1000F14BF0027062738460BB0BDE870
:1031A000F08F00252C46B1E73E460125CAE70446CC
:1031B000FBE74FF00009B11CD1E74FF00109FAE736
:1031C0000A2303FB0202103AD2E73146DDE7F31B84
:1031D000013B2946072B4FDC029800F0A1FA019B26
:1031E00000F114094FF0000BC3F101030546CDF8BF
:1031F0001090DA460893B74241D3049840F804ABE4
:10320000A0EB0900801028614701504600F04CFBFC
:10321000D8F800603F1AB74263DDBF1B3946284625
:1032200000F050FE8246A8B17B1E591103F01F0228
:103230004FF0010A59F821100AFA02F20A4209D0A5
:10324000534505DDB91E284600F03CFE002845D157
:103250004FF0020A39462846FFF7C4FE3C44D8F82E
:103260000830A3424BDA2946029800F08DFA149AEE
:1032700000231360A32790E701315B10AAE7731EB8
:103280000593079A16F8013C934217D0BBF1200F23
:1032900006D1049B43F804AB4FF0000A0493D346D5
:1032A00016F8010CFFF7D8FE00F00F0000FA0BF043
:1032B0004AEA000A0BF1040B059B0DE0059B089AF6
:1032C0001344BB42E2D31846019A0399099301F0D3
:1032D0003BF8099B0028D9D11E468CE74FF0030A22
:1032E000B8E709DAF71B29463A46029800F014FCC1
:1032F000E41B054600F114094FF0000AAFE7D8F8C7
:103300000400A0426DDD041BA64231DCD8F80C306D
:10331000022B22D0032B24D0012B15D1A64213D18E
:10332000012E0BD1069AD8F80430136001232B61CB
:10333000C9F80030149B62271D602EE7711E2846D5
:1033400000F0C0FD0028EDD12946029800F01CFADB
:10335000149A0023136050271FE7159B002BF3D10D
:10336000E0E7159B002BDDD1EEE700BFE851000838
:10337000671EBAF1000F31D127B13946284600F057
:10338000A1FD82467A11012307F01F0703FA07F710
:1033900059F8223021461F42284618BF4AF0020A37
:1033A000361BFFF71FFED8F804400227BAF1000FC2
:1033B00048D0D8F80C30022B15D0032B17D0012B96
:1033C00009D11AF0020F06D0D9F800304AEA030AF0
:1033D0001AF0010F0ED147F0100733E04FF0010A49
:1033E000D0E70127E2E7159BC3F101031593159B75
:1033F000002BF0D0D5F8109005F114034FEA890A9C
:1034000003EB0A014FF0000C184653F8042BB2F1FD
:10341000FF3F1CD001320260022F05F1140338D1A6
:10342000D8F80020013AB2420AD17111012206F007
:103430001F0653F8213002FA06F61E4218BF17463F
:1034400047F02007149B1D60069B1C60A5E699426F
:1034500043F804CCD8D8AB68994512DB6968029868
:10346000013100F05DF92A69023205F10C01834651
:1034700092000C30FDF754FA2946029800F084F9C6
:103480005D462B695A1C05EB83032A6101225A61B0
:10349000C2E72A694A450BDD01212846FFF7A2FD54
:1034A000D8F808300134A342FFF6DDAE0127C7E7A4
:1034B00016F01F06FAD09A44C6F120065AF8040CFA
:1034C00000F0F2F9B042E7DBF0E700BFC2F108021A
:1034D000920070B5C2F120064368046803FA06F54D
:1034E0002C43D340046040F8043F8842F4D370BDBD
:1034F00030B50368013311F8014B14B903600120A2
:1035000030BD13F8012BA2F14105192D98BF2032CF
:10351000A242F0D00020F3E72DE9F04F0B680168DC
:103520005F1102EB870713F01F0387B018BF043742
:1035300000253E1F82469046019347F8045CB14641
:1035400034460295AB464A784B1C039342B310466F
:1035500005910492FFF780FD002843D1049A059954
:10356000202A18D8029B9B4513DD4C4506D2072D17
:1035700004DC2A4649462046FFF7A8FF444544D9C3
:103580000023A4F1040944F8043CCDF808B04C46EB
:103590001D460399D7E7292A4AD10231CAF80010FB
:1035A000BBF1000F44D04C4506D2072D04DC2A465F
:1035B00049462046FFF78AFF444528D9434654F838
:1035C000042B43F8042BA642F9D2002243F8042B23
:1035D0009E42FBD233681BB9464527D10123336095
:1035E000052026E00135082D0BF1010B06DD4445D1
:1035F000CFD9002344F8043C0125043C226800F0A4
:103600000F0040EA02102060C3E70825C1E7019BD4
:10361000002BDFD04FF0FF32C3F1200322FA03F377
:1036200057F8042C1A4047F8042CD3E7043ED1E79E
:10363000042007B0BDE8F08F004870476801002003
:10364000024B0146186800F0BBBC00BF1000002010
:1036500082B001B901A942B14BB113780B60127865
:10366000101C18BF012002B070471046FBE76FF036
:103670000100F8E70000000000000000000000006A
:1036800001F0FF01102A2BDB10F0070F08D010F813
:10369000013B013A8B422DD010F0070F42B3F6D117
:1036A000F0B441EA012141EA014122F007047FF030
:1036B00000070023F0E80256083C85EA010586EA87
:1036C000010685FA47F5A3FA87F586FA47F6A5FAC3
:1036D00087F68EB9EED1F0BC01F0FF0102F00702CF
:1036E00032B110F8013B013A83EA010313B1F8D17A
:1036F0000020704701387047002D06BF354603385B
:10370000073815F0010F07D1013015F4807F02BF93
:10371000013015F4C03F0130F0BC0138704700BFE4
:1037200070B5456A04460E463DB91020FFF788FF84
:10373000C0E9015560620560C560656AEB6883B1E8
:10374000636ADB6853F82600B8B9012101FA06F56F
:103750006A1D9200204600F0D6FB60B1C0E9016509
:103760000EE021220421204600F0CDFB636AE860D0
:10377000DB68002BE4D1002070BD026843F82620EE
:103780000023C0E90333F7E770B5446A06460D46E7
:103790003CB91020FFF754FFC0E901447062046097
:1037A000C4603DB1736A6A68DB6853F8221029600F
:1037B00043F8225070BD2DE9F0410D691F460646C1
:1037C0000C4601F1140C0023DCF8000081B202FB6E
:1037D00001710F0C000C02FB007089B2013301EB88
:1037E00000419D424FEA10474CF8041BECDCD7B176
:1037F000A368AB4212DC616830460131FFF790FFED
:103800002269023204F10C01804692000C30FDF76F
:1038100087F821463046FFF7B7FF444604EB85039F
:1038200001355F6125612046BDE8F0812DE9F8434F
:103830000C4615461F4609220833064693FBF2F351
:10384000002101229A4220DB3046FFF769FF089BE6
:103850004361092D4FF00103036119DD04F10909EA
:10386000C8462C4418F8013B0146303B0A2230463A
:10387000FFF7A1FFA045F5D1A5F108044C442D1B8D
:103880006319BB4207DBBDE8F88352000131D9E779
:103890000A340925F3E714F8013B0146303B0A22BC
:1038A0003046FFF788FFEBE7020C12040346CAB963
:1038B0000304102013F07F4F04BF1B02083013F0E5
:1038C000704F04BF1B01043013F0404F04BF9B0036
:1038D0000230002B05DB13F0804F00F1010008BF20
:1038E000202070470020E5E7036813F00702014637
:1038F0000BD0DA0724D4980749BF5B089B08012046
:103900000B605CBF0B600220704798B2B0B91B0C13
:10391000102013F0FF0F04BF1B0A08301A0704BF62
:103920001B0904309A0704BF9B080230DA0703D44E
:103930005B0800F1010005D00B6070471046E8E716
:10394000002070472020704710B50C460121FFF77A
:10395000E7FE01224461026110BD2DE9F74F904658
:103960000A69D8F810309A42B8BF0B460C46BCBF63
:10397000444698462769D8F81090A368616807EB19
:103980000906B342B8BF0131FFF7CAFE00F11405C2
:1039900005EB860E2B460022734516D304F1140363
:1039A00008F1140203EB870702EB89030093009BE5
:1039B000019293420CD8002E03DD5EF8043D002BEB
:1039C00059D0066103B0BDE8F08F43F8042BE3E75C
:1039D000B2F800A0BAF1000F23D004F11409AC46EC
:1039E0004FF0000859F8041BDCF800B08BB21FFA46
:1039F0008BFB0AFB03B34FEA114BDCF80010434486
:103A00004FEA11480AFB0B8101EB13419BB243EAD9
:103A100001434F454FEA11484CF8043BE2D8CCF83B
:103A20000080019BB3F802900432B9F1000F20D05E
:103A30002B6804F11408AC464FF0000AB8F80010E7
:103A4000BCF802B009FB01B18A449BB243EA0A43C5
:103A50004CF8043B58F8043BBCF800101B0C09FB65
:103A6000031303EB1A4347454FEA134AE6D8CCF851
:103A7000003004359BE7013E9DE700002DE9F84347
:103A8000154612F0030206460F4607D0013A214CB4
:103A9000002354F82220FFF78EFE0746AD1035D0E4
:103AA000746A3CB91020FFF7CBFDC0E90144706295
:103AB0000460C460D6F82480D8F808404CB940F2BD
:103AC00071213046FFF740FF0023C8F80800044684
:103AD00003604FF00008EB070AD53946224630460E
:103AE000FFF73BFF394681463046FFF74DFE4F4614
:103AF0006D100BD0206838B9224621463046FFF7BA
:103B00002CFF2060C0F800800446E4E73846BDE89A
:103B1000F88300BFF05200082DE9F0470C464FEA49
:103B2000621A236949680AEB0309A3680746164627
:103B300009F10105AB4233DB3846FFF7F1FD002305
:103B4000804600F1140100F11002184653452ADBAB
:103B500020692AEAEA7A04F1140316F01F0201EB45
:103B60008A0103EB800C22D0C2F1200E00201E68D7
:103B70009640304341F8040B53F8040B9C4520FA5F
:103B80000EF0F4D8086008B109F10205013D38468D
:103B9000C8F810502146FFF7F7FD4046BDE8F08712
:103BA00001315B00C6E742F8040F0133CEE7043968
:103BB00053F8042B41F8042F9C45F9D8E6E7036934
:103BC0000A699B1A30B50CD1920014301431841854
:103BD000114454F8045D51F8042D954203D005D3E7
:103BE0000123184630BDA042F3D3FAE74FF0FF336C
:103BF000F7E72DE9F0470D460746114628461446DB
:103C0000FFF7DDFF061E08D131463846FFF788FD75
:103C10000123C0E90436BDE8F087A4BF23462C4643
:103C200038466168A6BF1D4600260126FFF778FDCD
:103C30002B69C660266905F1140904F1140202EB30
:103C4000860709EB830800F114054FF0000E52F8C7
:103C500004AB59F8044B1EFA8AF1A3B2C91A230C1B
:103C6000C3EB1A4303EB214389B24FEA234EC84505
:103C700041EA0343944645F8043BE8D8BC4504D3E5
:103C800055F8043D83B10661C5E75CF8041B1EFAD4
:103C900081F31A1402EB11429BB243EA02434FEA4A
:103CA000224E45F8043BE9E7013EE9E70F4B0B40A4
:103CB000A3F15073002B02DD0020194670475B42D0
:103CC0001B15132B4FF000004FF0000104DC4FF4E4
:103CD000002242FA03F17047143B1E2BDABF4FF06B
:103CE000004222FA03F30123184670470000F07FD8
:103CF0002DE9F843076900F1140909EB8707A7F1DB
:103D0000040857F8046C3046FFF7CEFDC0F12003DD
:103D10000A280B601F4917DCC0F10B0CC14526FABD
:103D20000CF338BF57F8082C43EA010528BF0022DE
:103D300000F1150306FA03F322FA0CF243EA020437
:103D400020462946BDE8F883C1453ABFA7F10808D7
:103D500057F8082C0022B0F10B0316D0C3F120074E
:103D600022FA07F1C84506FA03F646EA01068CBFB7
:103D700058F8041C002146F07F5502FA03F0F94080
:103D800045F4401540EA0104DAE746EA0105144625
:103D9000D6E700BF0000F03F2DE9F34101211C46AA
:103DA0009046DDE90865FFF7BBFCC4F31302C4F3DA
:103DB0000A5407462CBB0192B8F1000226D068468F
:103DC0000092FFF791FD0099F0B1019AC0F1200334
:103DD00002FA03F30B43C2407B610192019BBB617A
:103DE000002B14BF022101213961C4B1A4F2334474
:103DF00004443460C0F135002860384602B0BDE8A4
:103E0000F08142F48012D6E77961E7E701A8FFF775
:103E10006BFD019B7B61012139612030E5E707EBF8
:103E20008103A0F2324030601869FFF73DFDC0EB1E
:103E30004110E1E72DE9F74F884669468146FFF7D3
:103E400057FF8B4606460F46404601A9FFF750FF35
:103E5000D9F81030D8F81020A3EB020CDDE90032BD
:103E60009B1A03EB4C13002BD5BF0A463A46C3EB13
:103E7000033302EB035B0D46D8BF02EB03552B4621
:103E800002465946304600F0C3FD03B0BDE8F08F4E
:103E9000013910B549111469013102F1140300EB25
:103EA000810103EB8404A342024603D300238A4228
:103EB00005D310BD53F8042B40F8042BF3E742F868
:103EC000043BF4E700F1140200694B11984210B56D
:103ED00011DB0ADD11F01F0107D052F8234024FA4C
:103EE00001F000FA01F18C420BD102EB8303934203
:103EF00003D8002010BD0346F7E753F8041D00293E
:103F0000F5D00120F6E738B502FB01F4214600F0B8
:103F100057F8054618B12246002100F04EFA28460F
:103F200038BD000038B50546002945D051F8043C9D
:103F30000C1F002BB8BFE41800F048FA1F4A1368A2
:103F4000104633B9636014602846BDE8384000F07D
:103F500043BAA3420CD921686218934204BF1A687D
:103F60005B68636004BF521822600460ECE713468C
:103F70005A680AB1A242FAD919685818A0420BD15E
:103F800020680144581882421960DDD110685268D7
:103F90005A6001441960D7E702D90C232B60D3E79C
:103FA000206821188A4204BF11685268626004BF09
:103FB000091821605C60C7E738BD00BF74020020AB
:103FC000F8B5CD1C25F0030508350C2D38BF0C25A0
:103FD000002D064601DBA94203D90C2333600020E3
:103FE000F8BD00F0F3F921490A6814469CB9204F46
:103FF0003B6823B92146304600F096F938602946DF
:10400000304600F091F9431C23D10C233360304635
:1040100000F0E2F9E3E723685B1B17D40B2B03D90D
:1040200023601C44256004E06368A2420CBF0B605F
:104030005360304600F0D0F904F10B00231D20F04E
:104040000700C21ACCD01B1AA350C9E722466468E5
:10405000CCE7C41C24F00304A042E3D0211A30466C
:1040600000F062F90130DDD1CFE700BF740200201B
:10407000780200202DE9F0478E689E4282460C4669
:104080009146984638D8B1F80CC01CF4906F31D0E6
:1040900062692568096902EB42026F1A02EBD2726B
:1040A000013355103B449D4238BF1D461CF4806FC0
:1040B00030D02946FFF784FF064650B90C23CAF8D2
:1040C0000030A38943F04003A3814FF0FF30BDE8E7
:1040D000F0873A462169FCF723FCA38923F4906317
:1040E00043F08003A381266165613E44ED1B266099
:1040F000A5604646464500D94646324649462068B0
:1041000000F041F9A3689B1BA36023681E4426604E
:104110000020DCE72A4600F065F906460028E2D1D7
:1041200021695046FFF7FEFEC8E700002DE9F04F79
:104130001E468B891B069DB007460D4614460ED5BC
:104140000B6963B94021FFF73BFF2860286120B964
:104150000C233B604FF0FF30C9E040236B6100232C
:10416000099320238DF82930DFF89C9103963023A2
:104170008DF82A304FF0010A23461E4613F8012B12
:104180000AB1252AF9D1B6EB040B0BD05B462246C7
:1041900029463846FFF76EFF013000F0A380099BE7
:1041A0005B4409933378002B00F09C8000234FF090
:1041B000FF32CDE905230136049307938DF8533080
:1041C0001A933446052214F8011B4F48FFF758FA9A
:1041D000049BC0B9D90644BF20228DF853201A078A
:1041E00044BF2B228DF8532032782A2A13D0079A05
:1041F000344600200A26214611F8013B303B092BAA
:104200004BD970B914E0A0EB09000AFA00F018438A
:1042100004902646D5E7039A111D12680391002ADF
:1042200001DB079204E0524243F002030792049339
:1042300023782E2B0CD163782A2B33D1039B1A1DA4
:104240001B680392002BB8BF4FF0FF330234059375
:104250002E4E217803223046FFF712FA38B1402360
:10426000801B03FA00F0049B03430134049314F809
:10427000011B27488DF828100622FFF701FA0028B5
:1042800038D0244B13BB039B073323F007030833B9
:104290000393099B434409936EE706FB0232012016
:1042A0000C46A8E700230134059319460A26204648
:1042B00010F8012B303A092A03D9002BC8D00591F8
:1042C000C6E706FB012101230446F0E703AB009398
:1042D0002A46114B04A93846FCF7C0FBB0F1FF3F5A
:1042E0008046D6D1AB895B063FF534AF09981DB047
:1042F000BDE8F08F03AB00932A46074B04A938466C
:10430000FCF744FEEAE700BFFC5200080253000835
:10431000065300085D0A00087540000800200149A6
:10432000704700BF0000F87F38B5064C00230546F3
:1043300008462360FCF766F8431C02D1236803B1EA
:104340002B6038BD7C02002010B56AB10139841899
:1043500010F8013B11F8012F934203D1A04201D084
:10436000002BF5D1981A10BD1046FCE749B1FF2A81
:1043700085BF8A2303600A704FF0FF3098BF012089
:10438000704708467047884210B501EB020302D916
:1043900083421C4607D8421E994208D011F8014BAF
:1043A00002F8014FF8E783189A1A9A4200D110BD1B
:1043B00014F8011D03F8011DF7E702440346934278
:1043C00000D1704703F8011BF9E70000014800F035
:1043D0002FB800BF88020020014800F02AB800BFB3
:1043E00088020020F8B5074614460E4621B911464A
:1043F000BDE8F840FFF7E4BD22B9FFF793FD25467D
:104400002846F8BD00F016F8A0420FD221463846E3
:10441000FFF7D6FD05460028F2D031462246FCF7CC
:104420007FFA31463846FFF77DFDE9E73546E7E795
:104430007047704751F8043C181F002BBCBF0B5845
:10444000C018704781F0004102E000BF83F00043D4
:1044500030B54FEA41044FEA430594EA050F08BF1F
:1044600090EA020F1FBF54EA000C55EA020C7FEAE3
:10447000645C7FEA655C00F0E2804FEA5454D4EB60
:104480005555B8BF6D420CDD2C4480EA020281EA2A
:10449000030382EA000083EA010180EA020281EA62
:1044A0000303362D88BF30BD11F0004F4FEA0131B4
:1044B0004FF4801C4CEA113102D0404261EB4101C3
:1044C00013F0004F4FEA03334CEA133302D0524249
:1044D00063EB430394EA050F00F0A780A4F1010405
:1044E000D5F1200E0DDB02FA0EFC22FA05F280183F
:1044F00041F1000103FA0EF2801843FA05F3594125
:104500000EE0A5F120050EF1200E012A03FA0EFCA3
:1045100028BF4CF0020C43FA05F3C01851EBE371CD
:1045200001F0004507D54FF0000EDCF1000C7EEBEA
:1045300000006EEB0101B1F5801F1BD3B1F5001F28
:104540000CD349085FEA30004FEA3C0C04F1010447
:104550004FEA445212F5800F80F09A80BCF1004F70
:1045600008BF5FEA500C50F1000041EB045141EAF2
:10457000050130BD5FEA4C0C404141EB010111F4F3
:10458000801FA4F10104E9D191F0000F04BF01469E
:104590000020B1FA81F308BF2033A3F10B03B3F17C
:1045A00020020CDA0C3208DD02F1140CC2F10C020C
:1045B00001FA0CF021FA02F10CE002F11402D8BF6A
:1045C000C2F1200C01FA02F120FA0CFCDCBF41EA36
:1045D0000C019040E41AA2BF01EB0451294330BD05
:1045E0006FEA04041F3C1CDA0C340EDC04F11404E2
:1045F000C4F1200220FA04F001FA02F340EA0300B9
:1046000021FA04F345EA030130BDC4F10C04C4F1FE
:10461000200220FA02F001FA04F340EA03002946DE
:1046200030BD21FA04F0294630BD94F0000F83F428
:10463000801306BF81F480110134013D4EE77FEA0B
:10464000645C18BF7FEA655C29D094EA050F08BF57
:1046500090EA020F05D054EA000C04BF1946104638
:1046600030BD91EA030F1EBF0021002030BD5FEA7C
:10467000545C05D14000494128BF41F0004130BDA4
:1046800014F580043CBF01F5801130BD01F00045F8
:1046900045F0FE4141F470014FF0000030BD7FEA6B
:1046A000645C1ABF194610467FEA655C1CBF0B4666
:1046B000024650EA013406BF52EA033591EA030F7D
:1046C00041F4002130BD00BF90F0000F04BF002175
:1046D000704730B54FF4806404F132044FF00005A8
:1046E0004FF0000150E700BF90F0000F04BF002121
:1046F000704730B54FF4806404F1320410F0004587
:1047000048BF40424FF000013EE700BF42004FEA81
:10471000E2014FEA31014FEA02701FBF12F07F43FE
:1047200093F07F4F81F06051704732F07F4208BFB5
:10473000704793F07F4F04BF41F40021704730B5BC
:104740004FF4607401F0004521F000411CE700BF08
:1047500050EA010208BF704730B54FF000050AE08B
:1047600050EA010208BF704730B511F0004502D58C
:10477000404261EB41014FF4806404F132045FEA8E
:10478000915C3FF4D8AE4FF003025FEADC0C18BF37
:1047900003325FEADC0C18BF033202EBDC02C2F129
:1047A000200300FA03FC20FA02F001FA03FE40EABB
:1047B0000E0021FA02F11444BDE600BF70B54FF0BF
:1047C000FF0C4CF4E06C1CEA11541DBF1CEA13559D
:1047D00094EA0C0F95EA0C0F00F0DEF82C4481EA05
:1047E000030621EA4C5123EA4C5350EA013518BF25
:1047F00052EA033541F4801143F4801338D0A0FB12
:1048000002CE4FF00005E1FB02E506F00042E0FBBE
:1048100003E54FF00006E1FB03569CF0000F18BFC4
:104820004EF0010EA4F1FF04B6F5007F64F540746C
:1048300004D25FEA4E0E6D4146EB060642EAC621FF
:1048400041EA55514FEAC52040EA5E504FEACE2E6C
:10485000B4F1FD0C88BFBCF5E06F1ED8BEF1004F6F
:1048600008BF5FEA500E50F1000041EB045170BDEB
:1048700006F0004646EA010140EA020081EA03012F
:10488000B4EB5C04C2BFD4EB0C0541EA045170BD2B
:1048900041F480114FF0000E013C00F3AB8014F1A5
:1048A000360FDEBF002001F0004170BDC4F10004EE
:1048B000203C35DA0C341BDC04F11404C4F120056F
:1048C00000FA05F320FA04F001FA05F240EA0200CA
:1048D00001F0004221F0004110EBD37021FA04F600
:1048E00042EB06015EEA430E08BF20EAD37070BDBA
:1048F000C4F10C04C4F1200500FA04F320FA05F019
:1049000001FA04F240EA020001F0004110EBD3701A
:1049100041F100015EEA430E08BF20EAD37070BD8A
:10492000C4F1200500FA05F24EEA020E20FA04F363
:1049300001FA05F243EA020321FA04F001F0004112
:1049400021FA04F220EA020000EBD3705EEA430E83
:1049500008BF20EAD37070BD94F0000F0FD101F0B2
:104960000046400041EB010111F4801F08BF013CEB
:10497000F7D041EA060195F0000F18BF704703F029
:104980000046520043EB030313F4801F08BF013DB0
:10499000F7D043EA0603704794EA0C0F0CEA13556C
:1049A00018BF95EA0C0F0CD050EA410618BF52EA26
:1049B0004306D1D181EA030101F000414FF000002C
:1049C00070BD50EA410606BF1046194652EA43063A
:1049D00019D094EA0C0F02D150EA013613D195EAAE
:1049E0000C0F05D152EA03361CBF104619460AD1F6
:1049F00081EA030101F0004141F0FE4141F4700100
:104A00004FF0000070BD41F0FE4141F4780170BDEF
:104A100070B54FF0FF0C4CF4E06C1CEA11541DBF54
:104A20001CEA135594EA0C0F95EA0C0F00F0A7F856
:104A3000A4EB050481EA030E52EA03354FEA013183
:104A400000F088804FEA03334FF0805545EA131396
:104A500043EA12634FEA022245EA111545EA10655E
:104A60004FEA00260EF000419D4208BF964244F1F5
:104A7000FD0404F5407402D25B084FEA3202B61A14
:104A800065EB03055B084FEA32024FF480104FF4E8
:104A9000002CB6EB020E75EB030E22BFB61A75465C
:104AA00040EA0C005B084FEA3202B6EB020E75EBEF
:104AB000030E22BFB61A754640EA5C005B084FEA57
:104AC0003202B6EB020E75EB030E22BFB61A754624
:104AD00040EA9C005B084FEA3202B6EB020E75EB2F
:104AE000030E22BFB61A754640EADC0055EA060EF0
:104AF00018D04FEA051545EA16754FEA06164FEA33
:104B0000C30343EA52734FEAC2025FEA1C1CC0D1DE
:104B100011F4801F0BD141EA00014FF000004FF06B
:104B2000004CB6E711F4801F04BF01430020B4F12C
:104B3000FD0C88BFBCF5E06F3FF6AFAEB5EB030CE4
:104B400004BFB6EB020C5FEA500C50F1000041EBE1
:104B5000045170BD0EF0004E4EEA113114EB5C04AE
:104B6000C2BFD4EB0C0541EA045170BD41F4801181
:104B70004FF0000E013C90E645EA060E8DE60CEA89
:104B8000135594EA0C0F08BF95EA0C0F3FF43BAFA6
:104B900094EA0C0F0AD150EA01347FF434AF95EA5D
:104BA0000C0F7FF425AF104619462CE795EA0C0F41
:104BB00006D152EA03353FF4FDAE1046194622E70E
:104BC00050EA410618BF52EA43067FF4C5AE50EAE8
:104BD00041047FF40DAF52EA43057FF4EBAE12E7D8
:104BE0004FF0FF3C06E000BF4FF0010C02E000BFB9
:104BF0004FF0010C4DF804CD4FEA410C7FEA6C5C9C
:104C00004FEA430C18BF7FEA6C5C1BD001B050EA3E
:104C1000410C0CBF52EA430C91EA030F02BF90EA29
:104C2000020F0020704710F1000F91EA030F58BFE8
:104C3000994208BF90422CBFD8176FEAE37040F04A
:104C4000010070474FEA410C7FEA6C5C02D150EAE8
:104C5000013C07D14FEA430C7FEA6C5CD6D152EAA3
:104C6000033CD3D05DF8040B704700BF8446104668
:104C700062468C461946634600E000BF01B5FFF767
:104C8000B7FF002848BF10F1000F01BD4DF808ED37
:104C9000FFF7F4FF0CBF012000205DF808FB00BF08
:104CA0004DF808EDFFF7EAFF34BF012000205DF862
:104CB00008FB00BF4DF808EDFFF7E0FF94BF0120AF
:104CC00000205DF808FB00BF4DF808EDFFF7CEFFB0
:104CD00094BF012000205DF808FB00BF4DF808EDEF
:104CE000FFF7C4FF34BF012000205DF808FB00BFC0
:104CF0004FEA410C7FEA6C5C02D150EA013C0AD1D8
:104D00004FEA430C7FEA6C5C02D152EA033C02D1C9
:104D10004FF0000070474FF0010070474FEA41022A
:104D200012F5001215D211D56FF47873B3EB6252FD
:104D300012D94FEAC12343F0004343EA505311F024
:104D4000004F23FA02F018BF404270474FF00000B6
:104D5000704750EA013005D111F0004008BF6FF0F4
:104D6000004070474FF00000704700BF4A0011D26A
:104D700012F5001211D20DD56FF47873B3EB6252B5
:104D80000ED44FEAC12343F0004343EA505323FAC1
:104D900002F070474FF00000704750EA013002D136
:104DA0004FF0FF3070474FF0000070474FEA41026C
:104DB000B2F1E04324BFB3F5001CDCF1FE5C0DD979
:104DC00001F0004C4FEAC0024CEA5070B2F1004FC3
:104DD00040EB830008BF20F00100704711F0804FC6
:104DE00021D113F13872BCBF01F00040704741F48B
:104DF00080114FEA5252C2F11802C2F1200C10FA8F
:104E00000CF320FA02F018BF40F001004FEAC12372
:104E10004FEAD32303FA0CFC40EA0C0023FA02F316
:104E20004FEA4303CCE77FEA625307D150EA0133EC
:104E30001EBF4FF0FE4040F44000704701F00040BC
:104E400040F0FE4040F40000704700BF38B5054612
:104E50000C462846214600220023FFF721FF28B9EF
:104E600028462146BDE8384000F00AB8284604F13B
:104E7000004100F005F8404261EB410138BD00BF40
:104E8000D0B500220B4B06460F46FFF797FCFFF705
:104E90006DFF0446FFF718FC0022074BFFF78EFC5E
:104EA00002460B4630463946FFF7D0FAFFF75EFF61
:104EB0002146D0BD0000F03D0000F0415374616315
:104EC0006B206672616D653A0A0000002052302046
:104ED0003D2020253038580A0000000020523120A3
:104EE0003D2020253038580A000000002052322092
:104EF0003D2020253038580A000000002052332081
:104F00003D2020253038580A000000002052313260
:104F1000203D20253038580A00000000204C522047
:104F20003D2020253038580A000000002050432042
:104F30003D2020253038580A0000000020505352F0
:104F4000203D20253038580A000000004653522FDB
:104F50004641523A0A0000002043465352203D2069
:104F600020253038580A00002048465352203D2062
:104F700020253038580A00002044465352203D2056
:104F800020253038580A00002041465352203D2049
:104F900020253038580A0000204D4D464152203D12
:104FA00020253038580A00002042464152203D203A
:104FB00020253038580A00004D6973630A0000004C
:104FC000204C522F4558435F52455455524E3D2078
:104FD000253038580A0000005B48617264466175EC
:104FE0006C745D0A000000005B4275734661756C6D
:104FF000745D0A005B55736167654661756C745D2D
:105000000A0000000000000000000000010203048C
:105010000607080948656C6C6F2041726D20576F58
:10502000726C64210000000053797374656D206315
:105030006C6F636B3A20257520487A0A00000000E7
:105040005365636F6E642025640A0000494E460074
:10505000696E66004E414E006E616E003000303168
:1050600032333435363738394142434445460030CF
:1050700031323334353637383961626364656600FE
:1050800065256C640000000035000000CEFBFFFFCA
:10509000CB0300000100000000000000340000000D
:1050A000CEFBFFFFCB03000001000000000000006A
:1050B000BC89D897B2D29C3C33A7A8D523F64939EE
:1050C0003DA7F444FD0FA5329D978CCF08BA5B2510
:1050D000436FAC6428066811002020202020202087
:1050E0002020282828282820202020202020202098
:1050F00020202020202020202088101010101010A8
:1051000010101010101010101004040404040404F3
:10511000040404101010101010104141414141418D
:10512000010101010101010101010101010101016F
:10513000010101011010101010104242424242427F
:10514000020202020202020202020202020202023F
:1051500002020202101010102000000000000000E7
:10516000000000000000000000000000000000003F
:10517000000000000000000000000000000000002F
:10518000000000000000000000000000000000001F
:10519000000000000000000000000000000000000F
:1051A00000000000000000000000000000000000FF
:1051B00000000000000000000000000000000000EF
:1051C00000000000000000000000000000000000DF
:1051D000000000000000000000496E66696E6974FE
:1051E00079004E614E000000F451000801530008A0
:1051F000740000202E004300504F53495800000017
:105200000080E03779C34143176E05B5B5B89346C2
:10521000F5F93FE9034F384D321D30F94877825A8E
:105220003CBF737FDD4F1575000000000000F03FAC
:105230000000000000002440000000000000594071
:105240000000000000408F40000000000088C340C4
:1052500000000000006AF8400000000080842E4139
:1052600000000000D01263410000000084D7974185
:105270000000000065CDCD41000000205FA002428B
:10528000000000E876483742000000A2941A6D4200
:10529000000040E59C30A2420000901EC4BCD642F3
:1052A00000003426F56B0C430080E03779C341439E
:1052B00000A0D8855734764300C84E676DC1AB4314
:1052C000003D9160E458E143408CB5781DAF154432
:1052D00050EFE2D6E41A4B4492D54D06CFF080440D
:1052E000F64AE1C7022DB544B49DD9794378EA4422
:1052F00005000000190000007D000000232D302B68
:0D5300002000686C4C00656667454647005C
:1053100078563412F001002000000000007A030AE1
:105320001400002000000000000000000000000049
:10533000000000000000000000000000000000006D
:10534000000000000000000000000000000000005D
:10535000000000000000000000000000000000004D
:10536000000000000000000000000000000000003D
:10537000000000000000000000000000000000002D
:1053800000000000FF00FFFF4300000000000000DD
:10539000000000000000000000000000000000000D
:1053A00000000000000000004300000000000000BA
:1053B00000000000000000000000000000000000ED
:1053C000000000000000000043000000000000009A
:1053D00000000000000000000000000000000000CD
:1053E000000000000000000043000000000000007A
:1053F00000000000000000000000000000000000AD
:105400000000000000000000430000000000000059
:10541000000000000000000000000000000000008C
:105420000000000000000000430000000000000039
:10543000000000000000000000000000000000006C
:105440000000000000000000430000000000000019
:10545000000000000000000000000000000000004C
:1054600000000000000000006D43000851360008F5
:1054700000000000D8500008F45100080153000853
:1054800001530008015300080153000801530008AC
:10549000015300080153000801530008015300089C
:1054A000FFFFFFFFFFFFFFFFFFFFFFFFFFFF00000A
:1054B0000100415343494900000000000000000082
:1054C00000000000000000000000000000000000DC
:1054D0000000415343494900000000000000000063
:1054E00000000000000000000000000000000000BC
:0854F000000000003254769820
:040000050800018965
:00000001FF
